:100000000C9440000C9468000C9468000C946800F8
:100010000C9468000C9468000C9468000C946800C0
:100020000C9468000C9468000C9468000C946800B0
:100030000C9468000C94BB030C9468000C9468004A
:100040000C9498030C9468000C9468000C9468005D
:100050000C940C040C9468000C9468000C946800D8
:100060000C9468000C9468000C9468000C94680070
:100070000C9468000C9468000C9468006206690691
:1000800011241FBECFEFD8E0DEBFCDBF11E0A0E04E
:10009000B1E0ECEFF7E202C005900D92A035B10798
:1000A000D9F722E0A0E5B1E001C01D92AA33B20762
:1000B000E1F710E0CFE3D0E004C02197FE010E94F9
:1000C000EB13CE33D107C9F70E9408050C94F11346
:1000D0000C94000048B1982F92959F7050E1959F25
:1000E00090011124942F9F70292B28B998B1977FE4
:1000F00098B998B1946098B9E7EEF3E03197F1F7C9
:1001000000C0000098B19B7F98B9E7EEF3E031970B
:10011000F1F700C0000028B12F70F0E18F9FC001FF
:100120001124822B88B988B1846088B987EE93E066
:100130000197F1F700C0000088B18B7F88B9E7EE26
:10014000F3E03197F1F700C000008FE097E20197EC
:10015000F1F700C00000089582E00E946A0088E282
:100160000E946A0081E00E946A008CE00E946A009E
:1001700080E0803240F4E82FF0E0E75AFE4F90E252
:1001800090838F5FF6CF80E0843038F4E82FF0E082
:10019000EB5AFE4F10828F5FF7CF109254011092EE
:1001A0005301089580915101982F929596959770DB
:1001B0009370A82FAF718A2F9111A7C05A2F577033
:1001C0006FEF70E0052E02C0660F771F0A94E2F70A
:1001D0009A2F9871292F30E03595279535952795D9
:1001E00035952795F901EB5AFE4F40816423A1F024
:1001F00091E001C0990F5A95EAF701C090E0992368
:1002000009F444C0292F2423C9F78F5F990FB9F748
:1002100023E620935301F3CF892F522F91E001C0A1
:1002200095E09530F0F4252F30E0F901EB5AFE4FC0
:1002300040814111F5CF9F5F2F5F3F4F2430310543
:1002400014F45F5F01C050E0282F30E0285F3F4F7B
:100250002032310514F0885101C0885F953008F3D1
:100260000895E52FF0E0EB5AFE4F308191E001C098
:1002700090E0992359F0292F2323D1F7990F8F5F0D
:100280009111F7CF23E620935301F3CF982F9F705E
:10029000B1F09091520196959F71891310C0E1E5DC
:1002A000F1E090819F779083E82FF0E0E75AFE4FCE
:1002B00020812093500198B1986098B915C0E1E56C
:1002C000F1E0908190689083282F207130E0220F18
:1002D000331F220F331F2068982F9F70292B2093E4
:1002E000500198B1977F98B9E2E5F1E09081916073
:1002F000908398B122952F7040E1249F90011124A2
:100300009F70292B28B991E0B6C0913029F498B19B
:10031000946098B992E0AFC0923071F498B19B7F2D
:1003200098B99091510199230CF4A2C09091520177
:1003300090FFA0C093E09FC0933009F095C020913A
:1003400051012078D9F03091520130FF17C0E2E519
:10035000F1E0232F2E7F20833091500148B1642F8C
:100360006F7090E1399FA0011124462B48B99A2F54
:10037000990F217C292B208391E07DC0222321F13C
:100380009091520190FD20C098B1986098B9E1E534
:10039000F1E090819F779083E2E5F1E090819160B8
:1003A0009083EA2FF0E0E75AFE4F2081209350011E
:1003B00098B122952F7040E1249F900111249F70E5
:1003C000292B28B991E057C0211149C090915201C1
:1003D00090FF45C0E2E5F1E09E7F9083409150019F
:1003E00098B19F7050E1459F90011124292B28B9A5
:1003F000EA2FF0E0E75AFE4F9081491318C0EA2F28
:10040000E871F0E0F595E795F595E795F595E795B1
:100410009A2F977021E030E002C0220F331F9A9587
:10042000E2F7EB5AFE4F20959081922390839091B2
:10043000520196959F71292F30E02F5F3F4F203258
:10044000310514F49F5F01C090E0E2E5F1E09F7197
:10045000990F2081217C922B908391E00CC093E630
:100460009093530191E007C023E62093530103C00A
:1004700093E001C090E0E1E5F1E0292F2295220F01
:10048000207E90819F79922B8F71907E892B808323
:100490000895813220F08AE0809353010895282F37
:1004A00030E0F901E75AFE4F90819617E1F0F9012B
:1004B000E75AFE4F6083E82FE871F0E0F595E79585
:1004C000F595E795F595E795877021E030E0A9016E
:1004D00002C0440F551F8A95E2F7CA01EB5AFE4F3E
:1004E0009081892B808308950F931F93CF93DF937F
:1004F00061157105B1F08B01D82FC0E02C2F30E0D1
:100500002D0F311D2132310564F4F801EC0FF11D7E
:100510006081662331F08C2F8D0F0E944902CF5FDE
:10052000EDCFDF91CF911F910F910895FF920F931F
:100530001F93CF93DF9300D000D000D0CDB7DEB7AC
:10054000082FCB01BE016F5F7F4F0E94DE02F82EA5
:1005500010E0153038F58091540180FF0AC01F1556
:10056000C0F4E1E0F0E0EC0FFD1FE10FF11D608150
:1005700013C08F2D90E0810F911D853091055CF0A7
:100580000597E1E0F0E0EC0FFD1FE80FF91F608137
:1005900003C060E201C060E2812F800F0E94490227
:1005A0001F5FD7CF26960FB6F894DEBF0FBECDBF24
:1005B000DF91CF911F910F91FF900895EF92FF92DD
:1005C0000F931F93CF93DF93CDB7DEB72A970FB664
:1005D000F894DEBF0FBECDBF8C017B018AE0E3E063
:1005E000F1E0DE01119601900D928A95E1F781E02C
:1005F00030E020E0253080F5E22FF0E0EE0FFF1F25
:1006000041E050E04C0F5D1FE40FF51F0190F081B9
:10061000E02D0E171F07A0F0C801BF010E94C313F1
:10062000D701A30FB11D80E3860F8C936E9FC0018D
:100630006F9F900D1124081B190B3F5F80E00AC0CB
:10064000813011F4243031F4F701E30FF11D90E310
:1006500090833F5F2F5FCECFF701E30FF11D108234
:10066000832F2A960FB6F894DEBF0FBECDBFDF9161
:10067000CF911F910F91FF90EF9008951092C000BD
:1006800088E98093C10086E08093C2001092C50083
:1006900084E08093C400089582E084BD85BD80938A
:1006A0006E0089EF87BD18BC08958FEF9FEF909380
:1006B00089008093880010928B0010928A0010921B
:1006C0008700109286001092800088E0809381005D
:1006D0001092820082E080936F00089512B88FEF2D
:1006E00081B985B914B893E098B987B98BB982E01C
:1006F0008AB90E943E030E944C030E9455032FE3D7
:1007000082E49FE0215080409040E1F700C000006B
:1007100088B18D7F88B92FE382E49FE0215080402B
:100720009040E1F700C000000E94AC00789408956A
:100730001F920F920FB60F9211248F939F93809167
:10074000380281608093380280917901811105C05F
:1007500090913802926090933802873C11F08F5F3D
:1007600001C080E0809379019F918F910F900FBE1F
:100770000F901F9018951F920F920FB60F92112491
:100780002F933F934F935F936F937F938F939F9399
:10079000AF93BF93CF93EF93FF93C0910001C73006
:1007A00068F422B181E090E00C2E02C0880F991FFE
:1007B0000A94E2F78095822382B9CF5FC73098F41C
:1007C00022B181E090E00C2E02C0880F991F0A949C
:1007D000E2F7822B82B98C2F0E948F0490938900BC
:1007E0008093880005C0E1E8F0E080818E7F8083FF
:1007F000C0930001FF91EF91CF91BF91AF919F9175
:100800008F917F916F915F914F913F912F910F90B9
:100810000FBE0F901F9018951F920F920FB60F9258
:1008200011242F933F934F938F939F93AF93BF9335
:10083000EF93FF934091C6008091370280FD44C042
:10084000E7E3F2E0808181608083E2E3F2E092817D
:100850008181981730F0828190E02181821B91097B
:100860000AC0E2E3F2E02081828190E0820F911DD4
:100870002181821B91092091320230E021503109FF
:1008800082179307E4F4E2E3F2E0A381B48182816A
:10089000A80FB11D4C93228130E0808190E0019738
:1008A0002817390724F482818F5F828302C0109257
:1008B0003402E7E3F2E080818E7F808305C0E7E3C6
:1008C000F2E080818E7F8083FF91EF91BF91AF91A5
:1008D0009F918F914F913F912F910F900FBE0F904D
:1008E0001F9018950F931F93CF93DF93EC018B010B
:1008F000019739F46F3F7F4F21F480EA91E00E9425
:10090000A513CD2B39F40F3F1F4F21F480EA91E05E
:100910000E94FB06DF91CF911F910F9108950F93D5
:100920001F93CF93DF93282F30E0F901E458FE4F57
:100930009081F901E657FE4F4081042E000C550BC3
:10094000490F511D97FD5A959EE8949FE001959F90
:10095000D00D1124E1E0F0E002C0EE0FFF1F8A95F8
:10096000E2F7CF0182709927E817F90719F4D195BA
:10097000C195D109C05DDA488E01D901AD57BE4F8E
:100980008C914EE8849FC001112462E370E00E94C4
:10099000D713683782E0780714F067E772E0D9016F
:1009A000AA0FBB1FAF56BE4F8D919C91C81BD90B90
:1009B0006C177D0754F4E09540919F01E423E09388
:1009C0009F018C01060F171F16C044275527461B91
:1009D000570BC417D50754F4E09540919F01E423C9
:1009E000E0939F018C01061B170B05C080919F01AE
:1009F000E82BE0939F01220F331FF901EF56FE4FC2
:100A000011830083C801DF91CF911F910F91089549
:100A1000E2E3F2E08DE192E09483838380E18083DE
:100A2000EDE2F2E085E192E09483838388E08083C5
:100A300020E02730D0F4822F90E0FC01E458FE4FF4
:100A40001082FC01EE0FFF1FEF56FE4F40E355E70B
:100A500051834083FC01E657FE4F1082FC01ED57A5
:100A6000FE4F30E530832F5FE4CF0E946E0380EAB3
:100A700091E00E94C4066DE071E080E00E94740283
:100A800063E171E080E10E947402C0E0809138026D
:100A900080FF07C0809138028E7F809338020E94C9
:100AA000D2008091380281FF2FC0809138028D7F63
:100AB000809338021092000180E00E948F0490938E
:100AC000890080938800E1E8F0E080818160808384
:100AD00082B1816082B960917A0170917B016F5F10
:100AE0007F4F70937B0160937A0186E10E949602AA
:100AF000C43111F0CF5F01C0C0E0C11105C08091C9
:100B000038028460809338028091380282FF23C0CB
:100B1000809138028B7F80933802EDE2F2E0A3816E
:100B2000B4818281A80FB11D809139028F5B8C93B3
:100B30002281422F50E0808190E0019748175907A9
:100B400024F42F5F20932F0202C010922F0298B13D
:100B500081E0892788B9E2E3F2E0928181819817E8
:100B600058F08281218190E0821B910921E01816C2
:100B700019068CF020E00FC0E2E3F2E020818281D0
:100B800090E0820F911D2181821B910921E01816AE
:100B900019060CF020E0222309F455C0A2E3B2E0CC
:100BA0001396ED91FC91149711968C911197E80F83
:100BB000F11D60818091370281FD41C0E7E3F2E0E1
:100BC000808182608083FD0192818181981758F035
:100BD0008281218190E0821B910921E0181619067B
:100BE0008CF020E00FC0E2E3F2E02081828190E00F
:100BF000820F911D2181821B910921E0181619068F
:100C00000CF020E02223B1F0E2E3F2E0218130E0B9
:100C1000808190E001972817390724F481818F5F44
:100C2000818302C010923302E7E3F2E080818D7F7E
:100C3000808305C0E7E3F2E080818D7F808380EAD6
:100C400091E00E9495118091C00085FF1AC0EDE2ED
:100C5000F2E082812181821740F090E0821B9109AD
:100C60001816190684F080E011C030912D0290E032
:100C7000830F911D821B91091816190634F080E02C
:100C800005C080E003C081E001C081E0882309F451
:100C9000FDCEEDE2F2E0A381B4812181422F50E04C
:100CA000A40FB51F3C91808190E001974817590728
:100CB00024F42F5F20932E0202C010922E02309354
:100CC000C600E4CE6FEF7FEF81E090E00E947204F7
:100CD00008956FEF7FEF80E090E00E947204089526
:100CE000809139028F5F8093390208958091390293
:100CF0008F5F80933902E0910101F09102018081C0
:100D00008823C1F0EDE2F2E0A381B4819281A90FC2
:100D1000B11D8C932281422F50E0808190E0019799
:100D20004817590724F42F5F20932F02E4CF109225
:100D30002F02E1CFEDE2F2E0A381B4818281A80F1E
:100D4000B11D1C922281422F50E0808190E00197DA
:100D50004817590724F42F5F20932F02089510920B
:100D60002F020895809139028F5F80933902089590
:100D70000895909139029F5F90933902EAE8F1E07B
:100D800080836183089508950F931F93CF938C01FF
:100D900040E756E062E271E00E944A09C82F46E748
:100DA00056E069E171E0C8010E944A09C82B42EB94
:100DB00056E06BE171E0C8010E944A09C82B48EB7C
:100DC00056E06FE171E0C8010E944A09C82B49EB67
:100DD00056E067E271E0C8010E944A09C82B43EC63
:100DE00056E064E271E0C8010E944A098C2BCF9161
:100DF0001F910F9108950895CF92DF92EF92FF9285
:100E0000CF93DF939C01FC01EB59FF4F9081E92FB9
:100E1000E295EF7096959770D901A90FB11DAA5967
:100E2000BF4F8C916B3211F06D3269F491E06D32ED
:100E300009F090E0F901EB59FF4F808190FB80F9B8
:100E4000808380E057C1853509F453C038F4843479
:100E500009F4A5C0833509F474C03BC1833751F14F
:100E6000853721F0843609F034C1E1C08E2F90E03F
:100E7000F901E80FF91FE659FF4F40814A3108F0A8
:100E80002EC1440F542F550F550F450FF901EB5943
:100E9000FF4F508150FD03C0640F605303C0461BD9
:100EA000642F605D820F931FFC01E659FF4F608342
:100EB00080E020C1F0E0E659FF4FE20FF31F908180
:100EC0008CE0890F893108F00CC1990F892F880FA8
:100ED000880F980FD901AB59BF4F8C9180FD03C08B
:100EE000690F605303C0961B692F605D608380E0CB
:100EF00001C1F0E0E659FF4FE20FF31F80819181BD
:100F00008A3949E1940708F0EEC0AC01440F551F3F
:100F1000880F991F880F991F880F991F840F951F9D
:100F2000D901AB59BF4F2C9120FD04C0860F911DF4
:100F3000C09703C0861B9109C0969183808380E08F
:100F4000D9C0F0E0E659FF4FE20FF31F8081918195
:100F5000AC014453534F4939594108F0C6C0AC0164
:100F6000440F551F880F991F880F991F880F991FCD
:100F7000840F951FD901AB59BF4F2C9120FD06C09E
:100F800070E060537109860F971F05C070E06053D1
:100F90007109861B970B9183808380E0ABC0F0E0E2
:100FA000E659FF4FE20FF31F80819181A281B38147
:100FB0008A3949E99407A40749E1B40708F097C0C2
:100FC000880F991FAA1FBB1F6C017D01CC0CDD1C73
:100FD000EE1CFF1CCC0CDD1CEE1CFF1C8C0D9D1DA3
:100FE000AE1DBF1DE901CB59DF4F288120FD0DC08B
:100FF000462F50E040535109052E000C660B770B2D
:10100000840F951FA61FB71F0CC0462F50E04053FA
:101010005109052E000C660B770B841B950BA60B54
:10102000B70B80839183A283B38380E063C0F0E039
:10103000E659FF4FE20FF31F80819181A281B381B6
:101040006C017D015CECC50ED51EE51E5CE0F51E55
:1010500079E9C716D706E70679E1F70608F049C02F
:10106000880F991FAA1FBB1F6C017D01CC0CDD1CD2
:10107000EE1CFF1CCC0CDD1CEE1CFF1CC80ED91E88
:10108000EA1EFB1ED901AB59BF4F8C9180FD0CC0ED
:10109000862F90E0C097092E000CAA0BBB0B8C0D7D
:1010A0009D1DAE1DBF1D0FC0862F90E0C097092E5D
:1010B000000CAA0BBB0BA7019601281B390B4A0B8E
:1010C0005B0BDA01C90180839183A283B38380E043
:1010D00011C0F901EC58FF4F81E080830BC081E023
:1010E00009C081E007C081E005C081E003C081E064
:1010F00001C081E0DF91CF91FF90EF90DF90CF9022
:101100000895AC01FC01EB59FF4F9081292F2295E6
:101110002F7096959770FA01E90FF11DEA59FF4F6C
:101120008081853711F0833711F42F5F0BC085352F
:1011300011F0833511F42E5F05C0843411F084362C
:10114000E9F42C5F293040F0FA01EB59FF4F10828F
:101150003F9681E080830895FA01EB59FF4F229575
:10116000207F30813F70322B9F5F9770292F220F95
:10117000932F917F922B908380E0089581E00895D2
:101180008C589F4FFC0160830895CF93DF93EC014F
:101190006115710529F468E00E94C00881E077C0FC
:1011A000FB0180819FE9980F9A3148F081548A3180
:1011B00050F06EE0CE010E94C00881E068C050E0AF
:1011C000A0E091E003C050E0A0E091E0292F30E0E2
:1011D000FB01E20FF31F4081442309F44FC090321A
:1011E00008F04CC0453209F047C05F5F553030F021
:1011F0006AE0CE010E94C00881E049C0923070F0E0
:1012000022503109FB01E20FF31F8081853231F456
:101210006BE0CE010E94C00881E039C09F5FFB01F6
:10122000E90FF11D2081253589F028F4243491F04F
:10123000233571F013C0233739F0253719F02436E0
:1012400069F40AC0AF5F10C0AF5F0EC0AE5F0CC0E4
:10125000AE5F0AC0AC5F08C0AC5F06C069E0CE01FB
:101260000E94C00881E013C0A93030F06CE0CE01CC
:101270000E94C00881E00BC09F5FA8CF903230F081
:101280006DE0CE010E94C00881E001C080E0DF91E6
:10129000CF910895EF92FF920F931F93CF93DF9317
:1012A0006115710519F04115510539F4FC01EC582F
:1012B000FF4F25E0208381E021C0FC012081233104
:1012C00030F0EC58FF4F26E0208381E017C07A0110
:1012D0008B01EC010E94C50881110FC08881E82FA5
:1012E000F0E0EE0FFF1FEC0FFD1F12830183F6AE3F
:1012F000E5AE8F5F888380E001C081E0DF91CF9110
:101300001F910F91FF90EF90089570E0FC01E60FA0
:10131000F71F21A52F5F660F771FFC01E60FF71F50
:101320000180F281E02DE20FF11D3081FC01EB59CB
:10133000FF4F208126952770DC01A20FB11DAA590D
:10134000BF4F3C9320812E7F208322952F7035350F
:1013500009F128F4343491F1333531F147C0333792
:1013600071F0353721F0343609F040C033C0FC014C
:10137000E20FF11DE659FF4F108280E00895E22F41
:10138000F0E09F0126593F4FFC01E20FF31F10824E
:1013900080E0089530E026593F4FFC01E20FF31F33
:1013A0001182108280E0089530E026593F4FFC0101
:1013B000E20FF31F1182108280E0089530E0265979
:1013C0003F4FFC01E20FF31F108211821282138241
:1013D00080E0089530E026593F4FFC01E20FF31FF3
:1013E000108211821282138280E0089564E00E94CC
:1013F000C00881E00895EF92FF920F931F93CF935F
:10140000DF93DC01FB01EC01CB59DF4F988196950E
:1014100097702196911103C0099580E07FC72881BC
:10142000253719F0233709F02AC3913031F4A65932
:10143000BF4F8C91099580E071C78981853719F07C
:10144000833709F035C1923051F4ED01C559DF4FB2
:101450006881A659BF4F8C91099580E05FC78A814A
:10146000853719F0833709F058C0933061F4ED01E6
:10147000C459DF4F488121976881A659BF4F8C918D
:10148000099580E04BC78B81853711F0833789F44C
:10149000943009F006C7ED01C359DF4F2881219729
:1014A000488121976881A659BF4F8C91099580E0AA
:1014B00035C7853511F0833591F4ED01C359DF4F00
:1014C000943009F0F0C6288139812197488121970D
:1014D0006881A659BF4F8C91099580E01FC784345D
:1014E00011F08436A1F4ED01C359DF4F943009F0B7
:1014F000DCC6088119812A813B8121974881219787
:101500006881A659BF4F8C91099580E007C763E0B9
:10151000CD010E94C00881E001C7853519F08335EF
:1015200009F063C0AD0144595F4F933059F4EA01AB
:101530004881598121976881A659BF4F8C9109959F
:1015400080E0ECC68B81853711F08337A1F49430AD
:1015500009F0ADC6ED01C259DF4F2881EA0148818B
:101560005981ED01C559DF4F6881A659BF4F8C9154
:10157000099580E0D3C6853511F08335A9F4ED01D6
:10158000C259DF4F943009F094C628813981EA01AD
:1015900048815981ED01C559DF4F6881A659BF4F78
:1015A0008C91099580E0BAC6843411F08436B9F480
:1015B000ED01C259DF4F943009F07DC608811981D1
:1015C0002A813B81EA0148815981ED01C559DF4FEC
:1015D0006881A659BF4F8C91099580E09FC663E052
:1015E000CD010E94C00881E099C6843419F0843688
:1015F00009F058C09D0124593F4F933069F4E90127
:10160000288139814A815B8121976881A659BF4F22
:101610008C91099580E082C68B81853711F08337E4
:10162000B1F4943009F049C6ED01C059DF4F08818B
:10163000E901288139814A815B81ED01C559DF4F7C
:101640006881A659BF4F8C91099580E067C68535A2
:1016500011F08335B9F4ED01C059DF4F943009F032
:101660002EC608811981E901288139814A815B816F
:10167000ED01C559DF4F6881A659BF4F8C9109957F
:1016800080E04CC6843411F0843631F462E0CD0140
:101690000E94C00881E042C663E0CD010E94C008FC
:1016A00081E03CC664E0CD010E94C00881E036C6FE
:1016B000853519F0833509F018C1BD0165597F4F93
:1016C000923049F4EB0168817981A659BF4F8C9122
:1016D000099580E023C68A81853719F0833709F0A0
:1016E0005CC0933069F4ED01C359DF4F4881EB01D1
:1016F00068817981A659BF4F8C91099580E00EC60B
:101700008B81853711F0833791F4943009F0D9C576
:10171000ED01C259DF4F288121974881EB01688193
:101720007981A659BF4F8C91099580E0F7C5853521
:1017300011F0833599F4ED01C259DF4F943009F06F
:10174000C2C52881398121974881EB01688179815F
:10175000A659BF4F8C91099580E0E0C5843411F003
:101760008436A9F4ED01C259DF4F943009F0ADC5BC
:10177000088119812A813B8121974881EB01688189
:101780007981A659BF4F8C91099580E0C7C563E068
:10179000CD010E94C00881E0C1C5853519F08335AF
:1017A00009F051C0AD0143595F4F933061F4EA0134
:1017B00048815981EB0168817981A659BF4F8C918D
:1017C000099580E0ABC58B81853711F0833799F49B
:1017D000943009F07CC5ED01C159DF4F2881EA0141
:1017E00048815981EB0168817981A659BF4F8C915D
:1017F000099580E093C5853511F08335A1F4ED019D
:10180000C159DF4F943009F064C528813981EA015C
:1018100048815981EB0168817981A659BF4F8C912C
:10182000099580E07BC5843411F0843631F462E0A0
:10183000CD010E94C00881E071C563E0CD010E9426
:10184000C00881E06BC5843419F0843609F047C0C4
:101850009D0123593F4F933071F4E901288139816B
:101860004A815B81EB0168817981A659BF4F8C91D8
:10187000099580E053C58B81853711F08337A9F432
:10188000943009F028C5ED01CF58DF4F0881E901F8
:10189000288139814A815B81EB0168817981A65970
:1018A000BF4F8C91099580E039C5853511F083359E
:1018B00031F462E0CD010E94C00881E02FC584347C
:1018C00011F0843631F462E0CD010E94C00881E05D
:1018D00025C563E0CD010E94C00881E01FC564E01A
:1018E000CD010E94C00881E019C5843419F0843606
:1018F00009F0BFC0AD0145595F4F923059F4EA017C
:10190000488159816A817B81A659BF4F8C91099585
:1019100080E004C58A81853719F0833709F053C008
:10192000933079F4ED01C159DF4F2881EA014881F4
:1019300059816A817B81A659BF4F8C91099580E0BE
:10194000EDC48B81853711F08337A1F4943009F011
:10195000C4C4ED01C059DF4F088121972881EA01F5
:10196000488159816A817B81A659BF4F8C91099525
:1019700080E0D4C4853511F08335A9F4ED01C05958
:10198000DF4F943009F0ABC4088119812197288179
:10199000EA01488159816A817B81A659BF4F8C91A8
:1019A000099580E0BBC4843411F0843631F462E0E0
:1019B000CD010E94C00881E0B1C463E0CD010E9466
:1019C000C00881E0ABC4853519F0833509F041C00A
:1019D0009D0121593F4F933071F4E90128813981EC
:1019E000EA01488159816A817B81A659BF4F8C9158
:1019F000099580E093C48B81853711F08337A9F472
:101A0000943009F06EC4ED01CF58DF4F0881E90131
:101A100028813981EA01488159816A817B81A659EF
:101A2000BF4F8C91099580E079C4853531F08335BD
:101A300021F0843411F0843631F462E0CD010E944B
:101A4000C00881E06BC463E0CD010E94C00881E062
:101A500065C4843411F0843631F462E0CD010E9413
:101A6000C00881E05BC464E0CD010E94C00881E051
:101A700055C464E0CD010E94C00881E04FC4253503
:101A800019F0233509F08EC27D018AE6E80EF11CBB
:101A9000913031F4D7018D919C91099580E03EC43D
:101AA0008981853719F0833709F00FC1923049F4E5
:101AB000A459BF4F6C91E70188819981099580E015
:101AC0002DC48A81853719F0833709F05CC09330C3
:101AD00069F4ED01C359DF4F4881A459BF4F6C91A0
:101AE000D7018D919C91099580E018C48B81853731
:101AF00011F0833791F4943009F0F5C3ED01C25928
:101B0000DF4F288121974881A459BF4F6C91E7018D
:101B100088819981099580E001C4853511F083356C
:101B200099F4ED01C259DF4F943009F0DEC32881EA
:101B3000398121974881A459BF4F6C91D7018D916C
:101B40009C91099580E0EAC3843411F08436A9F4AD
:101B5000ED01C259DF4F943009F0C9C308811981E2
:101B60002A813B8121974881A459BF4F6C91E7019D
:101B700088819981099580E0D1C363E0CD010E94FD
:101B8000C00881E0CBC3853519F0833509F051C019
:101B9000AD0143595F4F933061F4EA0148815981A7
:101BA000A459BF4F6C91D7018D919C91099580E00C
:101BB000B5C38B81853711F0833799F4943009F0E0
:101BC00098C3ED01C159DF4F2881EA01488159814D
:101BD000A459BF4F6C91D7018D919C91099580E0DC
:101BE0009DC3853511F08335A1F4ED01C159DF4F57
:101BF000943009F080C328813981EA0148815981F4
:101C0000A459BF4F6C91D7018D919C91099580E0AB
:101C100085C3843411F0843631F462E0CD010E9432
:101C2000C00881E07BC363E0CD010E94C00881E071
:101C300075C3843419F0843609F041C09D012359DD
:101C40003F4F933071F4E901288139814A815B81EA
:101C5000A459BF4F6C91D7018D919C91099580E05B
:101C60005DC38B81853711F08337A9F4943009F077
:101C700044C3ED01CF58DF4F0881E9012881398144
:101C80004A815B81A459BF4F6C91D7018D919C9182
:101C9000099580E043C3853531F0833521F08434E4
:101CA00011F0843631F462E0CD010E94C00881E079
:101CB00035C363E0CD010E94C00881E02FC364E01A
:101CC000CD010E94C00881E029C3853519F0833514
:101CD00009F0DEC0BD0164597F4F923049F4EB0139
:101CE00068817981D7018D919C91099580E016C317
:101CF0008A81853719F0833709F04EC0933061F43B
:101D0000A259BF4F4C91EB0168817981D7018D9128
:101D10009C91099580E002C38B81853711F0833750
:101D200099F4943009F0EBC2ED01C159DF4F2881DD
:101D3000A259BF4F4C91EB0168817981D7018D91F8
:101D40009C91099580E0EAC2853511F08335A1F4B4
:101D5000ED01C159DF4F943009F0D3C22881398198
:101D6000A259BF4F4C91EB0168817981D7018D91C8
:101D70009C91099580E0D2C2843411F0843631F40C
:101D800062E0CD010E94C00881E0C8C263E0CD01DD
:101D90000E94C00881E0C2C2853519F0833509F080
:101DA00055C0AD0142595F4F933061F4EA0148815B
:101DB0005981DB016D917C91E701888199810995B9
:101DC00080E0ACC28B81853711F0833791F4943079
:101DD00009F099C2A059BF4F2C91DA014D915C9145
:101DE000EB0168817981D7018D919C91099580E003
:101DF00095C2853511F08335C9F4ED01C059DF4F27
:101E0000943071F428813981EA0148815981DB01DC
:101E10006D917C91E70188819981099580E07EC26E
:101E200062E0CD010E94C00881E078C2843411F0E4
:101E3000843631F462E0CD010E94C00881E06EC2B8
:101E400063E0CD010E94C00881E068C2843411F0D3
:101E50008436C1F4ED01C259DF4F933069F4288113
:101E600039814A815B81DB016D917C91E701888139
:101E70009981099580E052C262E0CD010E94C008BC
:101E800081E04CC264E0CD010E94C00881E046C2FE
:101E9000843419F0843609F07FC0AD0144595F4F96
:101EA000923059F4DA014D915D916D917C91E70189
:101EB00088819981099580E031C28A81853711F046
:101EC0008337F1F5933071F4A059BF4F2C91DA01AB
:101ED0004D915D916D917C91E70188819981099582
:101EE00080E01CC28B81853711F08337A9F49430D0
:101EF00009F00BC2ED01CF58DF4F0881A059BF4F49
:101F00002C91DA014D915D916D917C91E701888171
:101F10009981099580E002C2853531F0833521F041
:101F2000843411F0843631F462E0CD010E94C0089F
:101F300081E0F4C163E0CD010E94C00881E0EEC100
:101F4000853511F08335C1F4ED01C059DF4F933071
:101F500069F428813981DA014D915D916D917C910F
:101F6000E70188819981099580E0D8C162E0CD01BF
:101F70000E94C00881E0D2C1843411F0843631F46B
:101F800062E0CD010E94C00881E0C8C164E0CD01DB
:101F90000E94C00881E0C2C164E0CD010E94C00877
:101FA00081E0BCC1243419F0243609F074C1BD01AC
:101FB00066597F4F913041F4DB016D917D918D9198
:101FC0009C91099580E0AAC18981853719F08337F2
:101FD00009F0BCC0923059F4A259BF4F4C91EB01AB
:101FE000688179818A819B81099580E097C18A8186
:101FF000853719F0833709F053C0933079F4ED0138
:10200000C159DF4F2881A259BF4F4C91DB016D911F
:102010007D918D919C91099580E080C18B81853760
:1020200011F08337A1F4943009F071C1ED01C0596A
:10203000DF4F088121972881A259BF4F4C91EB01B6
:10204000688179818A819B81099580E067C18535A6
:1020500011F08335A9F4ED01C059DF4F943009F038
:1020600058C10881198121972881A259BF4F4C91ED
:10207000DB016D917D918D919C91099580E04EC120
:10208000843411F0843631F462E0CD010E94C0083E
:1020900081E044C163E0CD010E94C00881E03EC1FF
:1020A000853519F0833509F041C09D0121593F4F15
:1020B000933071F4E90128813981A259BF4F4C91C5
:1020C000DB016D917D918D919C91099580E026C1F8
:1020D0008B81853711F08337A9F4943009F01BC147
:1020E000ED01CF58DF4F0881E90128813981A259DC
:1020F000BF4F4C91DB016D917D918D919C91099524
:1021000080E00CC1853531F0833521F0843411F045
:10211000843631F462E0CD010E94C00881E0FEC047
:1021200063E0CD010E94C00881E0F8C0843411F062
:10213000843631F462E0CD010E94C00881E0EEC037
:1021400064E0CD010E94C00881E0E8C0853519F047
:10215000833509F07FC0AD0142595F4F923059F489
:10216000EA0148815981DB016D917D918D919C91AE
:10217000099580E0D3C08A81853711F08337F1F566
:10218000933071F4A059BF4F2C91EA0148815981D5
:10219000DB016D917D918D919C91099580E0BEC090
:1021A0008B81853711F08337A9F4943009F0B5C0DD
:1021B000ED01CF58DF4F0881A059BF4F2C91EA01A4
:1021C00048815981DB016D917D918D919C9109959B
:1021D00080E0A4C0853531F0833521F0843411F0DE
:1021E000843631F462E0CD010E94C00881E096C0DF
:1021F00063E0CD010E94C00881E090C0853511F0F8
:102200008335C1F4ED01C059DF4F933069F4288163
:102210003981EA0148815981DB016D917D918D9170
:102220009C91099580E07AC062E0CD010E94C008CF
:1022300081E074C0843411F0843631F462E0CD0161
:102240000E94C00881E06AC064E0CD010E94C0081D
:1022500081E064C0843411F08436B9F4ED01C259D0
:10226000DF4F923061F4288139814A815B81EB0133
:10227000688179818A819B81099580E04FC062E005
:10228000CD010E94C00881E049C064E0CD010E94F8
:10229000C00881E043C064E0CD010E94C00881E035
:1022A0003DC080E03BC080E039C080E037C080E0C6
:1022B00035C080E033C080E031C080E02FC080E0D6
:1022C0002DC080E02BC080E029C080E027C080E0E6
:1022D00025C080E023C080E021C080E01FC080E0F6
:1022E0001DC080E01BC080E019C080E017C080E006
:1022F00015C080E013C080E011C080E00FC080E016
:102300000DC080E00BC080E009C080E007C080E025
:1023100005C080E003C080E001C080E0DF91CF9184
:102320001F910F91FF90EF900895FF920F931F93CD
:10233000CF93DF93EC01162FFC01EC58FF4F808107
:1023400081111082111168C0FE01ED58FF4F80818C
:10235000823049F4CE010E948108882321F0FE01D9
:10236000EE58FF4F1082FE01EE58FF4FE0811E161F
:1023700064F580E05FEF4881841708F09DC1282F45
:1023800030E0FE01E20FF31F91A59923E1F0FE0179
:10239000ED58FF4F6081623039F49E5F61E06083E9
:1023A000FE01E20FF31F91A7220F331FFE01E20F80
:1023B000F31F0180F281E02DE90FF11D9081911151
:1023C00002C0582F842F8F5FD6CFEE230CF076C13A
:1023D000E0958E2F90E0DE01A80FB91F99962C9101
:1023E000DE01AD58BF4F3C91323009F42E5F880FAB
:1023F000991FDE01A80FB91F11968D919C9112971C
:10240000009709F45EC1DC01A20FB11D8C9181110E
:102410005BC15E2F01E070C1FE01ED58FF4F80816E
:10242000811133C08FE9810F8A3138F08FEB810F32
:102430008A3108F04CC120E001C020E088812817D3
:1024400008F048C1822F90E0FC01EE0FFF1FEC0F57
:10245000FD1F0180F281E02D3081131310C0FE01B9
:10246000EE58FF4F30813F5F3083FE01E80FF91FC8
:1024700031E031A7FE01ED58FF4F308304C0FE016B
:10248000E80FF91F11A62F5FD9CF813009F0DBC00B
:1024900080ED810F8A3028F01B3219F01D3209F0CF
:1024A00076C0FE01EE58FF4F808118160CF046C032
:1024B000F12C00E08881F81608F00FC18F2D90E014
:1024C000FE01E80FF91F21A52223B1F1FC01EE0F57
:1024D000FF1FEC0FFD1F0180F281E02DE20FF11DC7
:1024E00020812532B9F482E0FE01ED58FF4F808350
:1024F0006F2DCE010E948509612FCE010E94FC063E
:10250000FE01EE58FF4FF094F0820F2EF4E1FF2E03
:10251000F02D12C0FE01E80FF91F11A6FE01EE58C2
:10252000FF4F808182301CF08150808305C00F2EC8
:10253000F4E1FF2EF02D01E0F394BCCF88230CF0E2
:10254000CEC0682F6095862F90E0FC01EE0FFF1F34
:10255000EC0FFD1F0180F281E02DDE01A80FB91FF5
:1025600099968C91E80FF11D8081853209F0BAC0EF
:1025700082E0FE01ED58FF4F8083CE010E94850965
:10258000612FCE010E94FC065FEF00E0B5C0FE01A6
:10259000EE58FF4F50811516D4F580E000E0988189
:1025A000891708F0A2C0282F30E0FE01E20FF31FC8
:1025B00091A5992351F1F901EE0FFF1FEC0FFD1FBB
:1025C0000180F281E02DE90FF11D408114130EC04E
:1025D000FE01E20FF31F9F5F91A75130B1F4FE019E
:1025E000EE58FF4F8095808384E10FC0FE01E20F1B
:1025F000F31F11A6FE01EE58FF4F908192301CF0A0
:102600009150908302C084E101E08F5FC8CF852F95
:10261000809590E0FC01EE0FFF1FEC0FFD1F018085
:10262000F281E02DDE01A80FB91F99962C919997A0
:10263000E20FF11D308113135AC0FD012F5F21A756
:102640005FEF00E059C0823009F054C080ED810F87
:102650008A3038F4612FCE010E94FC065FEF00E063
:102660004BC0CE010E948108FE01EE58FF4F8081D1
:10267000809590E0FE01E80FF91F21A52E5F21A7AC
:10268000FC01EE0FFF1FEC0FFD1F0180F281E02D1A
:10269000E20FF11D3081131307C0FE01E80FF91F8F
:1026A0002F5F21A700E001C001E081E0FE01ED58AD
:1026B000FF4F80835FEF20C001E01EC05FEF01E0AD
:1026C0001BC05FEF01E018C05FEF01E015C05FEFD6
:1026D00001E012C05FEF00E00FC05FEF0DC05FEFE1
:1026E00000E00AC05FEF00E007C05FEF05C05FEFEA
:1026F00001E002C05FEF00E0002351F0FE01ED5861
:10270000FF4F1082319710825F3F11F43D97108286
:10271000552374F0E52FEE0FFF0BEC0FFD1F65AD99
:1027200076ADCE010E94FB09FE01EB59FF4F1082EE
:10273000CC58DF4F988181E0911101C080E0DF919A
:10274000CF911F910F91FF900895DC011C9290E0B2
:10275000943160F4E92FF0E0EE0FFF1FEA0FFB1F4A
:102760001282118216AE15AE9F5FF2CFFD01EE58B8
:10277000FF4F1082319610823196108260E0CD01B9
:102780000E9495110895AA1BBB1B51E107C0AA1F07
:10279000BB1FA617B70710F0A61BB70B881F991F02
:1027A0005A95A9F780959095BC01CD01089597FBA6
:1027B000072E16F4009407D077FD09D00E94C313AA
:1027C00007FC05D03EF4909581959F4F0895709534
:1027D00061957F4F0895EE0FFF1F0590F491E02D56
:1027E000099410E0CFE3D0E004C0FE010E94EB1397
:0C27F0002196C034D107C9F7F894FFCF40
:1027FC00073A011027E80364000A00010052414D1A
:10280C0049450054696D653A0046005245560053DF
:10281C00544F5000542575565225734C2573003275
:10282C003032352D31312D303900496E6475737469
:10283C0072696F75735F5265736F6E616E6365005D
:00000001FF
