:100000000C943E000C945B000C945B000C945B0021
:100010000C945B000C945B000C945B000C945B00F4
:100020000C945B000C945B000C945B000C945B00E4
:100030000C945B000C949D030C945B000C945B008F
:100040000C9479030C945B000C945B000C945B00A3
:100050000C94EE030C945B000C945B000C945B001E
:100060000C945B000C945B000C945B000C945B00A4
:100070000C945B000C945B000C945B0011241FBE7D
:10008000CFEFD8E0DEBFCDBF11E0A0E0B1E0E2EC01
:10009000FCE002C005900D92A831B107D9F721E02C
:1000A000A8E1B1E001C01D92AC38B207E1F70E94AF
:1000B000C9040C945F060C94000098B1282F207F8F
:1000C0009F70922B98B94398429AE7EEF3E03197EC
:1000D000F1F700C000004298E7EEF3E03197F1F746
:1000E00000C0000028B12F70F0E18F9FC0011124E3
:1000F000822B88B9429A87EE93E00197F1F700C00E
:1001000000004298E7EEF3E03197F1F700C00000FD
:100110008FE097E20197F1F700C00000089582E0B8
:100120000E945D0088E20E945D0081E00E945D0007
:100130008CE00E945D00E5E2F1E025E431E080E240
:100140008193E217F307E1F7EFE1F1E0108211820A
:10015000128213821092230110922401089580913B
:100160001901982F9295969597709370E82FEF71DB
:100170008E2F91119BC02E2F27709E2F9871492F83
:1001800050E0559547955595479555954795FA01F2
:10019000E15EFE4F30816FEF70E0022E02C0660F0D
:1001A000771F0A94E2F76323C1F091E001C0990F31
:1001B0002A95EAF74091240153E604C08F5F990F16
:1001C00009F4452F911103C0409324013BC0292F0E
:1001D0002323A1F34093240135C0892F94E017C055
:1001E0002F5F3F4F2430310514F44F5F01C040E0D2
:1001F000282F30E0285F3F4F2032310514F088511E
:1002000001C0885F913009F403C1915041F0242F5F
:1002100030E0F901E15EFE4F5081552309F3E42FF0
:10022000F0E0E15EFE4F30814091240191E005C095
:10023000990F8F5F992309F4E7C0292F2323C1F376
:1002400040932401982F9F70A1F090911A019695E8
:100250009F7189130EC0E9E1F1E090819F7790834F
:10026000E82FF0E0EB5DFE4F908190931801439AE8
:1002700011C0E9E1F1E0908190689083982F90712E
:10028000292F220F220F982F9F709068922B909306
:1002900018014398EAE1F1E020812160208328B130
:1002A000907F2F70922B98B991E0A0C0913019F4F3
:1002B000429A92E09BC0923061F442989091190169
:1002C00099230CF490C090911A0190FD8EC090E09B
:1002D0008DC0933009F083C02091190122238CF541
:1002E00090911A0190FF15C0AAE1B1E0292F2E7F4D
:1002F0002C9398B13091180160E1369FA001112430
:100300009F70492B48B9EE0F217C2E2B2C9391E046
:100310006DC0439AA9E1B1E09C919F779C93AAE1BB
:10032000B1E09C9191609C93F0E0EB5DFE4F2081E9
:100330002093180198B1207F9F70922B98B991E07B
:1003400055C090911A0190FF45C0AAE1B1E09E7F8F
:100350009C934091180198B19F7050E1459F900186
:100360001124292B28B9AE2FB0E0AB5DBE4F9C9174
:10037000491318C0AE2FA871B0E0B595A795B595F3
:10038000A795B595A795A15EBE4F9E2F977021E0CA
:1003900030E002C0220F331F9A95E2F720959C911E
:1003A00029232C9390911A0196959F71292F30E063
:1003B0002F5F3F4F2032310514F49F5F01C090E062
:1003C000EAE1F1E09F71990F2081217C922B9083CB
:1003D00091E00CC093E69093240191E007C023E6DE
:1003E0002093240103C093E001C093E0E9E1F1E030
:1003F0009370292F2295220F207E908190788F7103
:10040000922B982B9083089593E6909324011ACF12
:100410000895813220F08AE0809324010895282FE6
:1004200030E0F901EB5DFE4F90819617E1F0F901A4
:10043000EB5DFE4F6083E82FE871F0E0F595E795FE
:10044000F595E795F595E795E15EFE4F877021E01C
:1004500030E0A90102C0440F551F8A95E2F7CA0196
:100460009081892B80830895EF92FF920F931F93C1
:10047000CF93DF93FB013097E9F0E82EF12C91E266
:10048000E916F104BCF460816623A1F08F01D82F36
:10049000C0E08D2F8C0F0E940902CF5F97012C0FB7
:1004A000311D2132310534F4F801EC0FF11D60816A
:1004B0006111EFCFDF91CF911F910F91FF90EF90DE
:1004C00008957F928F929F92AF92BF92CF92DF92C8
:1004D000EF92FF920F931F93CF93DF9300D000D042
:1004E00000D0CDB7DEB7082FCB019E012F5F3F4F65
:1004F0004901B9010E94BE02782EA82EB12C6501D7
:1005000035E0C31AD108C80CD91C740110E0A81832
:10051000B9088091230180FF05C0171558F4F70131
:1005200060810BC0C5018E0D9F1D05972CF0F60153
:10053000608103C060E201C060E2802F810F0E94F1
:1005400009021F5FFFEFEF1AFF0A2FEFC21AD20A4C
:100550001530F9F626960FB6F894DEBF0FBECDBF64
:10056000DF91CF911F910F91FF90EF90DF90CF908F
:10057000BF90AF909F908F907F900895BF92CF9241
:10058000DF92EF92FF920F931F93CF93DF93CDB73C
:10059000DEB72A970FB6F894DEBF0FBECDBF7C0141
:1005A0006B018AE0E1E0F1E0DE01119601900D922D
:1005B0008A95E1F78E010F5F1F4F81E030E020E068
:1005C0000F2EF0E3BF2EF02D40E0D801ED91FD910C
:1005D0008D01EE16FF06A0F0C701BF010E9437068D
:1005E000D601A30FB11D80E3860F8C936E9FC001CF
:1005F0006F9F900D1124E81AF90A3F5F842F09C0FC
:10060000813011F4243029F4F601E30FF11DB0829A
:100610003F5F2F5F2530C9F6F601E30FF11D108211
:10062000832F2A960FB6F894DEBF0FBECDBFDF91A1
:10063000CF911F910F91FF90EF90DF90CF90BF90DF
:1006400008951092C00088E98093C10086E08093ED
:10065000C2001092C50084E08093C400089582E037
:1006600084BD85BD80936E0089EF87BD18BC089559
:100670008FEF9FEF909389008093880010928B00FA
:1006800010928A00109287001092860010928000CB
:1006900088E0809381001092820082E080936F0056
:1006A000089512B88FEF81B985B914B893E098B95D
:1006B00087B98BB982E08AB90E9421030E942F0377
:1006C0000E9438032FE382E49FE021508040904055
:1006D000E1F700C0000041982FE382E49FE0215041
:1006E00080409040E1F700C000000E948F007894A5
:1006F00008951F920F920FB60F9211248F939F931C
:1007000080914A01816080934A0180911B0181118F
:1007100006C090914A01926090934A0102C0873CC2
:1007200011F08F5F01C080E080931B019F918F913A
:100730000F900FBE0F901F9018951F920F920FB63B
:100740000F9211242F933F934F935F936F937F9357
:100750008F939F93AF93BF93CF93EF93FF93C091EA
:100760000001C73010F522B181E090E00C2E02C0EC
:10077000880F991F0A94E2F78095822382B9CF5F90
:10078000C73098F422B181E090E00C2E02C0880FAF
:10079000991F0A94E2F7822B82B98C2F0E9454048D
:1007A000909389008093880005C0E1E8F0E08081A3
:1007B0008E7F8083C0930001FF91EF91CF91BF9115
:1007C000AF919F918F917F916F915F914F913F91E9
:1007D0002F910F900FBE0F901F9018951F920F92A0
:1007E0000FB60F9211242F933F934F938F939F93A4
:1007F000AF93BF93EF93FF934091C60080918B011D
:1008000080FD44C0EBE8F1E0808181608083E6E810
:10081000F1E092818181981730F08281218190E00E
:10082000821B91090AC0E6E8F1E0308182812181D2
:1008300090E0830F911D821B91092091860130E089
:100840002150310982179307E4F4E6E8F1E0A3812F
:10085000B4818281A80FB11D4C932281808130E048
:1008600090E001972817390724F482818F5F8283F3
:1008700002C010928801EBE8F1E080818E7F8083D6
:1008800005C0EBE8F1E080818E7F8083FF91EF91DE
:10089000BF91AF919F918F914F913F912F910F9069
:1008A0000FBE0F901F901895CF93DF93282F30E045
:1008B000F901E659FE4F9081F901EF58FE4F408152
:1008C000042E000C550B490F511D97FD5A959EE8BB
:1008D000949FE001959FD00D1124E1E0F0E002C06B
:1008E000EE0FFF1F8A95E2F7CF0182709927E81774
:1008F000F90719F4D195C195D109C05DDA48D9013C
:10090000AD5ABE4F8C914EE8849FC001112462E322
:1009100070E00E944B06683782E0780714F067E7C2
:1009200072E0D901AA0FBB1FA858BE4F8D919C91B0
:10093000AE01481B590B6417750754F4E0954091BC
:100940001E01E423E0931E01EB01C80FD91F16C05E
:10095000AA27BB27A61BB70B4A175B0754F4E095E1
:1009600040911E01E423E0931E01EC01C61BD70B4E
:1009700005C080911E01E82BE0931E01220F331F5A
:10098000F901E858FE4FD183C083CE01DF91CF91AA
:100990000895E6E8F1E08AE591E09483838380E1BD
:1009A0008083E5E4F1E08BE491E09483838388E045
:1009B0008083EAE6F1E088E791E0C1E7D1E003E572
:1009C00011E061E771E040E355E720E51192DC01B9
:1009D0004D935D93CD011992D8012D938D01E617AA
:1009E000F707A1F70E9451036BE071E080E00E94DD
:1009F000340261E171E080E10E943402412C0F2E4B
:100A0000F8E86F2E712CF02D0F2EF1E8CF2ED12C9F
:100A1000F02D05E411E00F2EFAE53F2EF02D5524C0
:100A20005394C6E8D1E00F2EFBE8EF2EF1E0FF2E45
:100A3000F02D0F2EF0EC8F2E912CF02D0F2EF6ECCA
:100A4000AF2EB12CF02D80914A0180FF07C080911C
:100A50004A018E7F80934A010E94AF0080914A0133
:100A600081FF2BC080914A018D7F80934A011092B3
:100A7000000180E00E945404F30191838083D60139
:100A80008C9181608C93109A60911C0170911D0172
:100A90006F5F7F4F70931D0160931C0186E10E9480
:100AA0006102B4E14B1619F04394411006C08091E5
:100AB0004A01846080934A01412C80914A0182FF5F
:100AC00022C080914A018B7F80934A01F801828184
:100AD0000380F481E02DE80FF11D3082D8011296D9
:100AE0002C911297422F50E08C9190E0019748177B
:100AF000590724F42F5F12962C9302C0F80112823A
:100B000088B1852588B99A818981981758F08A819A
:100B1000298190E0821B9109252D181619067CF079
:100B200020E00DC038818A81298190E0830F911DDA
:100B3000821B9109252D181619060CF020E022239E
:100B400009F45CC0EB81FC818981E80FF11D808193
:100B5000D7019C9191FD38C09C9192609C932A8111
:100B60009981291758F02A81998130E0291B310990
:100B7000952D121613067CF090E00DC048812A8155
:100B8000998130E0240F311D291B3109952D121652
:100B900013060CF090E0992399F04981288150E0E8
:100BA00030E0215031094217530724F499819F5FA7
:100BB000998301C01982F70190819D7F908304C0C1
:100BC000D7019C919D7F9C93F80192810380F481D1
:100BD000E02DE90FF11D8083D80112962C91129718
:100BE000422F50E08C9190E001974817590724F468
:100BF0002F5F12962C9302C0F8011282D4018C91BF
:100C000085FF21CFF80182812181821748F090E091
:100C1000821B9109352D181619066CF030E00BC0B7
:100C2000308190E0830F911D821B9109352D18169C
:100C300019060CF030E0332309F405CF422F50E0C1
:100C4000D8011396ED91FC911497E40FF51F3081B4
:100C50008C9190E001974817590724F42F5F119663
:100C60002C9302C0F8011182D5013C93ECCEAA1B53
:100C7000BB1B51E107C0AA1FBB1FA617B70710F087
:100C8000A61BB70B881F991F5A95A9F780959095B9
:100C9000BC01CD01089597FB072E16F4009407D0F0
:100CA00077FD09D00E94370607FC05D03EF49095E9
:100CB00081959F4F0895709561957F4F0895F894A1
:020CC000FFCF64
:100CC200071027E80364000A00010052414D49451C
:080CD2000054696D653A000051
:00000001FF
